{
  "contractName": "ComptrollerMock",
  "abi": [
    {
      "constant": true,
      "inputs": [],
      "name": "isComptroller",
      "outputs": [
        {
          "internalType": "bool",
          "name": "",
          "type": "bool"
        }
      ],
      "payable": false,
      "stateMutability": "view",
      "type": "function"
    },
    {
      "constant": false,
      "inputs": [
        {
          "internalType": "address[]",
          "name": "cTokens",
          "type": "address[]"
        }
      ],
      "name": "enterMarkets",
      "outputs": [
        {
          "internalType": "uint256[]",
          "name": "",
          "type": "uint256[]"
        }
      ],
      "payable": false,
      "stateMutability": "nonpayable",
      "type": "function"
    },
    {
      "constant": false,
      "inputs": [
        {
          "internalType": "address",
          "name": "cToken",
          "type": "address"
        }
      ],
      "name": "exitMarket",
      "outputs": [
        {
          "internalType": "uint256",
          "name": "",
          "type": "uint256"
        }
      ],
      "payable": false,
      "stateMutability": "nonpayable",
      "type": "function"
    },
    {
      "constant": false,
      "inputs": [
        {
          "internalType": "address",
          "name": "cToken",
          "type": "address"
        },
        {
          "internalType": "address",
          "name": "minter",
          "type": "address"
        },
        {
          "internalType": "uint256",
          "name": "mintAmount",
          "type": "uint256"
        }
      ],
      "name": "mintAllowed",
      "outputs": [
        {
          "internalType": "uint256",
          "name": "",
          "type": "uint256"
        }
      ],
      "payable": false,
      "stateMutability": "nonpayable",
      "type": "function"
    },
    {
      "constant": false,
      "inputs": [
        {
          "internalType": "address",
          "name": "cToken",
          "type": "address"
        },
        {
          "internalType": "address",
          "name": "minter",
          "type": "address"
        },
        {
          "internalType": "uint256",
          "name": "mintAmount",
          "type": "uint256"
        },
        {
          "internalType": "uint256",
          "name": "mintTokens",
          "type": "uint256"
        }
      ],
      "name": "mintVerify",
      "outputs": [],
      "payable": false,
      "stateMutability": "nonpayable",
      "type": "function"
    },
    {
      "constant": false,
      "inputs": [
        {
          "internalType": "address",
          "name": "cToken",
          "type": "address"
        },
        {
          "internalType": "address",
          "name": "redeemer",
          "type": "address"
        },
        {
          "internalType": "uint256",
          "name": "redeemTokens",
          "type": "uint256"
        }
      ],
      "name": "redeemAllowed",
      "outputs": [
        {
          "internalType": "uint256",
          "name": "",
          "type": "uint256"
        }
      ],
      "payable": false,
      "stateMutability": "nonpayable",
      "type": "function"
    },
    {
      "constant": false,
      "inputs": [
        {
          "internalType": "address",
          "name": "cToken",
          "type": "address"
        },
        {
          "internalType": "address",
          "name": "redeemer",
          "type": "address"
        },
        {
          "internalType": "uint256",
          "name": "redeemAmount",
          "type": "uint256"
        },
        {
          "internalType": "uint256",
          "name": "redeemTokens",
          "type": "uint256"
        }
      ],
      "name": "redeemVerify",
      "outputs": [],
      "payable": false,
      "stateMutability": "nonpayable",
      "type": "function"
    },
    {
      "constant": false,
      "inputs": [
        {
          "internalType": "address",
          "name": "cToken",
          "type": "address"
        },
        {
          "internalType": "address",
          "name": "borrower",
          "type": "address"
        },
        {
          "internalType": "uint256",
          "name": "borrowAmount",
          "type": "uint256"
        }
      ],
      "name": "borrowAllowed",
      "outputs": [
        {
          "internalType": "uint256",
          "name": "",
          "type": "uint256"
        }
      ],
      "payable": false,
      "stateMutability": "nonpayable",
      "type": "function"
    },
    {
      "constant": false,
      "inputs": [
        {
          "internalType": "address",
          "name": "cToken",
          "type": "address"
        },
        {
          "internalType": "address",
          "name": "borrower",
          "type": "address"
        },
        {
          "internalType": "uint256",
          "name": "borrowAmount",
          "type": "uint256"
        }
      ],
      "name": "borrowVerify",
      "outputs": [],
      "payable": false,
      "stateMutability": "nonpayable",
      "type": "function"
    },
    {
      "constant": false,
      "inputs": [
        {
          "internalType": "address",
          "name": "cToken",
          "type": "address"
        },
        {
          "internalType": "address",
          "name": "payer",
          "type": "address"
        },
        {
          "internalType": "address",
          "name": "borrower",
          "type": "address"
        },
        {
          "internalType": "uint256",
          "name": "repayAmount",
          "type": "uint256"
        }
      ],
      "name": "repayBorrowAllowed",
      "outputs": [
        {
          "internalType": "uint256",
          "name": "",
          "type": "uint256"
        }
      ],
      "payable": false,
      "stateMutability": "nonpayable",
      "type": "function"
    },
    {
      "constant": false,
      "inputs": [
        {
          "internalType": "address",
          "name": "cToken",
          "type": "address"
        },
        {
          "internalType": "address",
          "name": "payer",
          "type": "address"
        },
        {
          "internalType": "address",
          "name": "borrower",
          "type": "address"
        },
        {
          "internalType": "uint256",
          "name": "repayAmount",
          "type": "uint256"
        },
        {
          "internalType": "uint256",
          "name": "",
          "type": "uint256"
        }
      ],
      "name": "repayBorrowVerify",
      "outputs": [],
      "payable": false,
      "stateMutability": "nonpayable",
      "type": "function"
    },
    {
      "constant": false,
      "inputs": [
        {
          "internalType": "address",
          "name": "cTokenBorrowed",
          "type": "address"
        },
        {
          "internalType": "address",
          "name": "cTokenCollateral",
          "type": "address"
        },
        {
          "internalType": "address",
          "name": "liquidator",
          "type": "address"
        },
        {
          "internalType": "address",
          "name": "borrower",
          "type": "address"
        },
        {
          "internalType": "uint256",
          "name": "repayAmount",
          "type": "uint256"
        }
      ],
      "name": "liquidateBorrowAllowed",
      "outputs": [
        {
          "internalType": "uint256",
          "name": "",
          "type": "uint256"
        }
      ],
      "payable": false,
      "stateMutability": "nonpayable",
      "type": "function"
    },
    {
      "constant": false,
      "inputs": [
        {
          "internalType": "address",
          "name": "cTokenBorrowed",
          "type": "address"
        },
        {
          "internalType": "address",
          "name": "cTokenCollateral",
          "type": "address"
        },
        {
          "internalType": "address",
          "name": "liquidator",
          "type": "address"
        },
        {
          "internalType": "address",
          "name": "borrower",
          "type": "address"
        },
        {
          "internalType": "uint256",
          "name": "repayAmount",
          "type": "uint256"
        },
        {
          "internalType": "uint256",
          "name": "",
          "type": "uint256"
        }
      ],
      "name": "liquidateBorrowVerify",
      "outputs": [],
      "payable": false,
      "stateMutability": "nonpayable",
      "type": "function"
    },
    {
      "constant": false,
      "inputs": [
        {
          "internalType": "address",
          "name": "cTokenCollateral",
          "type": "address"
        },
        {
          "internalType": "address",
          "name": "cTokenBorrowed",
          "type": "address"
        },
        {
          "internalType": "address",
          "name": "liquidator",
          "type": "address"
        },
        {
          "internalType": "address",
          "name": "borrower",
          "type": "address"
        },
        {
          "internalType": "uint256",
          "name": "",
          "type": "uint256"
        }
      ],
      "name": "seizeAllowed",
      "outputs": [
        {
          "internalType": "uint256",
          "name": "",
          "type": "uint256"
        }
      ],
      "payable": false,
      "stateMutability": "nonpayable",
      "type": "function"
    },
    {
      "constant": false,
      "inputs": [
        {
          "internalType": "address",
          "name": "cTokenCollateral",
          "type": "address"
        },
        {
          "internalType": "address",
          "name": "cTokenBorrowed",
          "type": "address"
        },
        {
          "internalType": "address",
          "name": "liquidator",
          "type": "address"
        },
        {
          "internalType": "address",
          "name": "borrower",
          "type": "address"
        },
        {
          "internalType": "uint256",
          "name": "",
          "type": "uint256"
        }
      ],
      "name": "seizeVerify",
      "outputs": [],
      "payable": false,
      "stateMutability": "nonpayable",
      "type": "function"
    },
    {
      "constant": false,
      "inputs": [
        {
          "internalType": "address",
          "name": "cToken",
          "type": "address"
        },
        {
          "internalType": "address",
          "name": "src",
          "type": "address"
        },
        {
          "internalType": "address",
          "name": "dst",
          "type": "address"
        },
        {
          "internalType": "uint256",
          "name": "transferTokens",
          "type": "uint256"
        }
      ],
      "name": "transferAllowed",
      "outputs": [
        {
          "internalType": "uint256",
          "name": "",
          "type": "uint256"
        }
      ],
      "payable": false,
      "stateMutability": "nonpayable",
      "type": "function"
    },
    {
      "constant": false,
      "inputs": [
        {
          "internalType": "address",
          "name": "cToken",
          "type": "address"
        },
        {
          "internalType": "address",
          "name": "src",
          "type": "address"
        },
        {
          "internalType": "address",
          "name": "dst",
          "type": "address"
        },
        {
          "internalType": "uint256",
          "name": "transferTokens",
          "type": "uint256"
        }
      ],
      "name": "transferVerify",
      "outputs": [],
      "payable": false,
      "stateMutability": "nonpayable",
      "type": "function"
    },
    {
      "constant": true,
      "inputs": [
        {
          "internalType": "address",
          "name": "cTokenBorrowed",
          "type": "address"
        },
        {
          "internalType": "address",
          "name": "cTokenCollateral",
          "type": "address"
        },
        {
          "internalType": "uint256",
          "name": "repayAmount",
          "type": "uint256"
        }
      ],
      "name": "liquidateCalculateSeizeTokens",
      "outputs": [
        {
          "internalType": "uint256",
          "name": "amountSeizeError",
          "type": "uint256"
        },
        {
          "internalType": "uint256",
          "name": "seizeTokens",
          "type": "uint256"
        }
      ],
      "payable": false,
      "stateMutability": "view",
      "type": "function"
    }
  ],
  "bytecode": "0x608060405234801561001057600080fd5b50610cab806100206000396000f3fe608060405234801561001057600080fd5b50600436106101155760003560e01c80636a56947e116100a2578063c488847b11610071578063c488847b146104bc578063d02f73511461050b578063da3d454c14610551578063eabe7d9114610587578063ede4edd0146105bd57610115565b80636a56947e1461033e5780636d35bf911461037a578063bdcdc258146103c0578063c2998238146103fc57610115565b806347ef3b3b116100e957806347ef3b3b146102045780634ef4c3e11461025057806351dff989146102865780635c778605146102c25780635fc7e71e146102f857610115565b80627e3dd21461011a5780631ededc911461013657806324008a621461017a57806341c728b9146101c8575b600080fd5b6101226105e3565b604080519115158252519081900360200190f35b610178600480360360a081101561014c57600080fd5b506001600160a01b038135811691602081013582169160408201351690606081013590608001356105e8565b005b6101b66004803603608081101561019057600080fd5b506001600160a01b03813581169160208101358216916040820135169060600135610670565b60408051918252519081900360200190f35b610178600480360360808110156101de57600080fd5b506001600160a01b038135811691602081013590911690604081013590606001356106fe565b610178600480360360c081101561021a57600080fd5b506001600160a01b0381358116916020810135821691604082013581169160608101359091169060808101359060a00135610744565b6101b66004803603606081101561026657600080fd5b506001600160a01b038135811691602081013590911690604001356107e0565b6101786004803603608081101561029c57600080fd5b506001600160a01b0381358116916020810135909116906040810135906060013561081f565b610178600480360360608110156102d857600080fd5b506001600160a01b038135811691602081013590911690604001356108d7565b6101b6600480360360a081101561030e57600080fd5b506001600160a01b038135811691602081013582169160408201358116916060810135909116906080013561094b565b6101786004803603608081101561035457600080fd5b506001600160a01b038135811691602081013582169160408201351690606001356109ed565b610178600480360360a081101561039057600080fd5b506001600160a01b0381358116916020810135821691604082013581169160608101359091169060800135610a26565b6101b6600480360360808110156103d657600080fd5b506001600160a01b03813581169160208101358216916040820135169060600135610a72565b61046c6004803603602081101561041257600080fd5b81019060208101813564010000000081111561042d57600080fd5b82018360208201111561043f57600080fd5b8035906020019184602083028401116401000000008311171561046157600080fd5b509092509050610aba565b60408051602080825283518183015283519192839290830191858101910280838360005b838110156104a8578181015183820152602001610490565b505050509050019250505060405180910390f35b6104f2600480360360608110156104d257600080fd5b506001600160a01b03813581169160208101359091169060400135610ac2565b6040805192835260208301919091528051918290030190f35b6101b6600480360360a081101561052157600080fd5b506001600160a01b0381358116916020810135821691604082013581169160608101359091169060800135610b40565b6101b66004803603606081101561056757600080fd5b506001600160a01b03813581169160208101359091169060400135610b8e565b6101b66004803603606081101561059d57600080fd5b506001600160a01b03813581169160208101359091169060400135610bff565b6101b6600480360360208110156105d357600080fd5b50356001600160a01b0316610c70565b600190565b6001600160a01b0385166105fb57600080fd5b6001600160a01b03841661060e57600080fd5b6001600160a01b03831661062157600080fd5b60008211610669576040805162461bcd60e51b815260206004820152601060248201526f07265706179416d6f756e74203d3d20360841b604482015290519081900360640190fd5b5050505050565b60006001600160a01b03851661068557600080fd5b6001600160a01b03841661069857600080fd5b6001600160a01b0383166106ab57600080fd5b600082116106f3576040805162461bcd60e51b815260206004820152601060248201526f07265706179416d6f756e74203d3d20360841b604482015290519081900360640190fd5b506000949350505050565b6001600160a01b03841661071157600080fd5b6001600160a01b03831661072457600080fd5b6000821161073157600080fd5b6000811161073e57600080fd5b50505050565b6001600160a01b03861661075757600080fd5b6001600160a01b03851661076a57600080fd5b6001600160a01b03841661077d57600080fd5b6001600160a01b03831661079057600080fd5b600082116107d8576040805162461bcd60e51b815260206004820152601060248201526f07265706179416d6f756e74203d3d20360841b604482015290519081900360640190fd5b505050505050565b60006001600160a01b0384166107f557600080fd5b6001600160a01b03831661080857600080fd5b6000821161081557600080fd5b5060009392505050565b6001600160a01b03841661083257600080fd5b6001600160a01b03831661084557600080fd5b6000821161088e576040805162461bcd60e51b8152602060048201526011602482015270072656465656d416d6f756e74203d3d203607c1b604482015290519081900360640190fd5b6000811161073e576040805162461bcd60e51b8152602060048201526011602482015270072656465656d546f6b656e73203d3d203607c1b604482015290519081900360640190fd5b6001600160a01b0383166108ea57600080fd5b6001600160a01b0382166108fd57600080fd5b60008111610946576040805162461bcd60e51b81526020600482015260116024820152700626f72726f77416d6f756e74203d3d203607c1b604482015290519081900360640190fd5b505050565b60006001600160a01b03861661096057600080fd5b6001600160a01b03851661097357600080fd5b6001600160a01b03841661098657600080fd5b6001600160a01b03831661099957600080fd5b600082116109e1576040805162461bcd60e51b815260206004820152601060248201526f07265706179416d6f756e74203d3d20360841b604482015290519081900360640190fd5b50600095945050505050565b6001600160a01b038416610a0057600080fd5b6001600160a01b038316610a1357600080fd5b6001600160a01b03821661073157600080fd5b6001600160a01b038416610a3957600080fd5b6001600160a01b038516610a4c57600080fd5b6001600160a01b038316610a5f57600080fd5b6001600160a01b03821661066957600080fd5b60006001600160a01b038516610a8757600080fd5b6001600160a01b038416610a9a57600080fd5b6001600160a01b038316610aad57600080fd5b600082116106f357600080fd5b606092915050565b6000806001600160a01b038516610ad857600080fd5b6001600160a01b038416610aeb57600080fd5b60008311610b33576040805162461bcd60e51b815260206004820152601060248201526f07265706179416d6f756e74203d3d20360841b604482015290519081900360640190fd5b5060009485945092505050565b60006001600160a01b038516610b5557600080fd5b6001600160a01b038616610b6857600080fd5b6001600160a01b038416610b7b57600080fd5b6001600160a01b0383166109e157600080fd5b60006001600160a01b038416610ba357600080fd5b6001600160a01b038316610bb657600080fd5b60008211610815576040805162461bcd60e51b81526020600482015260116024820152700626f72726f77416d6f756e74203d3d203607c1b604482015290519081900360640190fd5b60006001600160a01b038416610c1457600080fd5b6001600160a01b038316610c2757600080fd5b60008211610815576040805162461bcd60e51b8152602060048201526011602482015270072656465656d546f6b656e73203d3d203607c1b604482015290519081900360640190fd5b5060009056fea265627a7a72315820a83e1a2382648400f8f5dc1641889a4ccf2f7ce89c3e2b6bc92d6d135096aaeb64736f6c634300050c0032",
  "source": "pragma solidity ^0.5.8;\n\nimport \"../../compound/contracts/ComptrollerInterface.sol\";\n\ncontract ComptrollerMock is ComptrollerInterface {\n    /**\n     * @notice Marker function used for light validation when updating the comptroller of a market\n     * @dev Implementations should simply return true.\n     * @return true\n     */\n    function isComptroller() external view returns (bool) { return true; }\n\n    /*** Assets You Are In ***/\n\n    function enterMarkets(address[] calldata cTokens) external returns (uint[] memory) {\n        // TODO\n    }\n\n    function exitMarket(address cToken) external returns (uint) {\n        // TODO\n    }\n\n    /*** Policy Hooks ***/\n\n    function mintAllowed(address cToken, address minter, uint mintAmount) external returns (uint) {\n        require(cToken != address(0));\n        require(minter != address(0));\n        require(mintAmount > 0);\n        return 0;\n    }\n    function mintVerify(address cToken, address minter, uint mintAmount, uint mintTokens) external {\n        require(cToken != address(0));\n        require(minter != address(0));\n        require(mintAmount > 0);\n        require(mintTokens > 0);\n    }\n\n    function redeemAllowed(address cToken, address redeemer, uint redeemTokens) external returns (uint) {\n        require(cToken != address(0));\n        require(redeemer != address(0));\n        require(redeemTokens > 0, \"redeemTokens == 0\");\n        return 0;\n    }\n    function redeemVerify(address cToken, address redeemer, uint redeemAmount, uint redeemTokens) external {\n        require(cToken != address(0));\n        require(redeemer != address(0));\n        require(redeemAmount > 0, \"redeemAmount == 0\");\n        require(redeemTokens > 0, \"redeemTokens == 0\");\n\n    }\n\n    function borrowAllowed(address cToken, address borrower, uint borrowAmount) external returns (uint) {\n        require(cToken != address(0));\n        require(borrower != address(0));\n        require(borrowAmount > 0, \"borrowAmount == 0\");\n        return 0;\n    }\n    function borrowVerify(address cToken, address borrower, uint borrowAmount) external {\n        require(cToken != address(0));\n        require(borrower != address(0));\n        require(borrowAmount > 0, \"borrowAmount == 0\");\n    }\n\n    function repayBorrowAllowed(\n        address cToken,\n        address payer,\n        address borrower,\n        uint repayAmount) external returns (uint) {\n        require(cToken != address(0));\n        require(payer != address(0));\n        require(borrower != address(0));\n        require(repayAmount > 0, \"repayAmount == 0\");\n        return 0;\n    }\n    function repayBorrowVerify(\n        address cToken,\n        address payer,\n        address borrower,\n        uint repayAmount,\n        uint /* borrowerIndex */) external {\n        require(cToken != address(0));\n        require(payer != address(0));\n        require(borrower != address(0));\n        require(repayAmount > 0, \"repayAmount == 0\");\n    }\n\n    function liquidateBorrowAllowed(\n        address cTokenBorrowed,\n        address cTokenCollateral,\n        address liquidator,\n        address borrower,\n        uint repayAmount) external returns (uint) {\n        require(cTokenBorrowed != address(0));\n        require(cTokenCollateral != address(0));\n        require(liquidator != address(0));\n        require(borrower != address(0));\n        require(repayAmount > 0, \"repayAmount == 0\");\n        return 0;\n    }\n    function liquidateBorrowVerify(\n        address cTokenBorrowed,\n        address cTokenCollateral,\n        address liquidator,\n        address borrower,\n        uint repayAmount,\n        uint /* seizeTokens */) external {\n        require(cTokenBorrowed != address(0));\n        require(cTokenCollateral != address(0));\n        require(liquidator != address(0));\n        require(borrower != address(0));\n        require(repayAmount > 0, \"repayAmount == 0\");\n    }\n\n    function seizeAllowed(\n        address cTokenCollateral,\n        address cTokenBorrowed,\n        address liquidator,\n        address borrower,\n        uint /* seizeTokens */) external returns (uint){\n        require(cTokenBorrowed != address(0));\n        require(cTokenCollateral != address(0));\n        require(liquidator != address(0));\n        require(borrower != address(0));\n        return 0;\n    }\n    function seizeVerify(\n        address cTokenCollateral,\n        address cTokenBorrowed,\n        address liquidator,\n        address borrower,\n        uint /* seizeTokens */) external {\n        require(cTokenBorrowed != address(0));\n        require(cTokenCollateral != address(0));\n        require(liquidator != address(0));\n        require(borrower != address(0));\n    }\n\n    function transferAllowed(address cToken, address src, address dst, uint transferTokens) external returns (uint) {\n        require(cToken != address(0));\n        require(src != address(0));\n        require(dst != address(0));\n        require(transferTokens > 0);\n        return 0;\n    }\n    function transferVerify(address cToken, address src, address dst, uint transferTokens) external {\n        require(cToken != address(0));\n        require(src != address(0));\n        require(dst != address(0));\n        require(transferTokens > 0);\n    }\n\n    /*** Liquidity/Liquidation Calculations ***/\n    function liquidateCalculateSeizeTokens(\n        address cTokenBorrowed,\n        address cTokenCollateral,\n        uint repayAmount) external view returns (uint amountSeizeError, uint seizeTokens) {\n        require(cTokenBorrowed != address(0));\n        require(cTokenCollateral != address(0));\n        require(repayAmount > 0, \"repayAmount == 0\");\n        amountSeizeError = 0;\n        seizeTokens = 0;\n    }\n}\n",
  "sourcePath": "/Users/william/Development/Ethereum/StakeCapitalRepos/rtoken-contracts/contracts/test/ComptrollerMock.sol",
  "compiler": {
    "name": "solc",
    "version": "0.5.12+commit.7709ece9.Emscripten.clang"
  },
  "schemaVersion": "3.0.16",
  "updatedAt": "2019-11-25T09:25:33.312Z",
  "devdoc": {
    "methods": {
      "isComptroller()": {
        "details": "Implementations should simply return true.",
        "return": "true"
      }
    }
  },
  "userdoc": {
    "methods": {
      "enterMarkets(address[])": {
        "notice": "* Assets You Are In **"
      },
      "isComptroller()": {
        "notice": "Marker function used for light validation when updating the comptroller of a market"
      },
      "liquidateCalculateSeizeTokens(address,address,uint256)": {
        "notice": "* Liquidity/Liquidation Calculations **"
      },
      "mintAllowed(address,address,uint256)": {
        "notice": "* Policy Hooks **"
      }
    }
  }
}