{
  "contractName": "RTokenStorageLayoutTester",
  "abi": [
    {
      "anonymous": false,
      "inputs": [
        {
          "indexed": false,
          "internalType": "address",
          "name": "strategy",
          "type": "address"
        },
        {
          "indexed": false,
          "internalType": "uint256",
          "name": "conversionRate",
          "type": "uint256"
        }
      ],
      "name": "AllocationStrategyChanged",
      "type": "event"
    },
    {
      "anonymous": false,
      "inputs": [
        {
          "indexed": true,
          "internalType": "address",
          "name": "owner",
          "type": "address"
        },
        {
          "indexed": true,
          "internalType": "address",
          "name": "spender",
          "type": "address"
        },
        {
          "indexed": false,
          "internalType": "uint256",
          "name": "value",
          "type": "uint256"
        }
      ],
      "name": "Approval",
      "type": "event"
    },
    {
      "anonymous": false,
      "inputs": [
        {
          "indexed": false,
          "internalType": "address",
          "name": "newCode",
          "type": "address"
        }
      ],
      "name": "CodeUpdated",
      "type": "event"
    },
    {
      "anonymous": false,
      "inputs": [
        {
          "indexed": true,
          "internalType": "address",
          "name": "account",
          "type": "address"
        },
        {
          "indexed": true,
          "internalType": "uint256",
          "name": "oldHatID",
          "type": "uint256"
        },
        {
          "indexed": true,
          "internalType": "uint256",
          "name": "newHatID",
          "type": "uint256"
        }
      ],
      "name": "HatChanged",
      "type": "event"
    },
    {
      "anonymous": false,
      "inputs": [
        {
          "indexed": true,
          "internalType": "uint256",
          "name": "hatID",
          "type": "uint256"
        }
      ],
      "name": "HatCreated",
      "type": "event"
    },
    {
      "anonymous": false,
      "inputs": [
        {
          "indexed": true,
          "internalType": "address",
          "name": "recipient",
          "type": "address"
        },
        {
          "indexed": false,
          "internalType": "uint256",
          "name": "amount",
          "type": "uint256"
        }
      ],
      "name": "InterestPaid",
      "type": "event"
    },
    {
      "anonymous": false,
      "inputs": [
        {
          "indexed": true,
          "internalType": "address",
          "name": "owner",
          "type": "address"
        },
        {
          "indexed": true,
          "internalType": "address",
          "name": "recipient",
          "type": "address"
        },
        {
          "indexed": true,
          "internalType": "uint256",
          "name": "hatId",
          "type": "uint256"
        },
        {
          "indexed": false,
          "internalType": "bool",
          "name": "isDistribution",
          "type": "bool"
        },
        {
          "indexed": false,
          "internalType": "uint256",
          "name": "redeemableAmount",
          "type": "uint256"
        },
        {
          "indexed": false,
          "internalType": "uint256",
          "name": "internalSavingsAmount",
          "type": "uint256"
        }
      ],
      "name": "LoansTransferred",
      "type": "event"
    },
    {
      "anonymous": false,
      "inputs": [
        {
          "indexed": true,
          "internalType": "address",
          "name": "previousOwner",
          "type": "address"
        },
        {
          "indexed": true,
          "internalType": "address",
          "name": "newOwner",
          "type": "address"
        }
      ],
      "name": "OwnershipTransferred",
      "type": "event"
    },
    {
      "anonymous": false,
      "inputs": [
        {
          "indexed": true,
          "internalType": "address",
          "name": "from",
          "type": "address"
        },
        {
          "indexed": true,
          "internalType": "address",
          "name": "to",
          "type": "address"
        },
        {
          "indexed": false,
          "internalType": "uint256",
          "name": "value",
          "type": "uint256"
        }
      ],
      "name": "Transfer",
      "type": "event"
    },
    {
      "constant": true,
      "inputs": [],
      "name": "ALLOCATION_STRATEGY_EXCHANGE_RATE_SCALE",
      "outputs": [
        {
          "internalType": "uint256",
          "name": "",
          "type": "uint256"
        }
      ],
      "payable": false,
      "stateMutability": "view",
      "type": "function"
    },
    {
      "constant": true,
      "inputs": [],
      "name": "INITIAL_SAVING_ASSET_CONVERSION_RATE",
      "outputs": [
        {
          "internalType": "uint256",
          "name": "",
          "type": "uint256"
        }
      ],
      "payable": false,
      "stateMutability": "view",
      "type": "function"
    },
    {
      "constant": true,
      "inputs": [],
      "name": "MAX_NUM_HAT_RECIPIENTS",
      "outputs": [
        {
          "internalType": "uint256",
          "name": "",
          "type": "uint256"
        }
      ],
      "payable": false,
      "stateMutability": "view",
      "type": "function"
    },
    {
      "constant": true,
      "inputs": [],
      "name": "MAX_UINT256",
      "outputs": [
        {
          "internalType": "uint256",
          "name": "",
          "type": "uint256"
        }
      ],
      "payable": false,
      "stateMutability": "view",
      "type": "function"
    },
    {
      "constant": true,
      "inputs": [],
      "name": "PROPORTION_BASE",
      "outputs": [
        {
          "internalType": "uint32",
          "name": "",
          "type": "uint32"
        }
      ],
      "payable": false,
      "stateMutability": "view",
      "type": "function"
    },
    {
      "constant": true,
      "inputs": [],
      "name": "SELF_HAT_ID",
      "outputs": [
        {
          "internalType": "uint256",
          "name": "",
          "type": "uint256"
        }
      ],
      "payable": false,
      "stateMutability": "view",
      "type": "function"
    },
    {
      "constant": true,
      "inputs": [],
      "name": "_guardCounter",
      "outputs": [
        {
          "internalType": "uint256",
          "name": "",
          "type": "uint256"
        }
      ],
      "payable": false,
      "stateMutability": "view",
      "type": "function"
    },
    {
      "constant": true,
      "inputs": [],
      "name": "_owner",
      "outputs": [
        {
          "internalType": "address",
          "name": "",
          "type": "address"
        }
      ],
      "payable": false,
      "stateMutability": "view",
      "type": "function"
    },
    {
      "constant": true,
      "inputs": [
        {
          "internalType": "address",
          "name": "",
          "type": "address"
        }
      ],
      "name": "accountStats",
      "outputs": [
        {
          "internalType": "uint256",
          "name": "cumulativeInterest",
          "type": "uint256"
        }
      ],
      "payable": false,
      "stateMutability": "view",
      "type": "function"
    },
    {
      "constant": true,
      "inputs": [
        {
          "internalType": "address",
          "name": "",
          "type": "address"
        }
      ],
      "name": "accounts",
      "outputs": [
        {
          "internalType": "uint256",
          "name": "hatID",
          "type": "uint256"
        },
        {
          "internalType": "uint256",
          "name": "rAmount",
          "type": "uint256"
        },
        {
          "internalType": "uint256",
          "name": "rInterest",
          "type": "uint256"
        },
        {
          "internalType": "uint256",
          "name": "lDebt",
          "type": "uint256"
        },
        {
          "internalType": "uint256",
          "name": "sInternalAmount",
          "type": "uint256"
        }
      ],
      "payable": false,
      "stateMutability": "view",
      "type": "function"
    },
    {
      "constant": true,
      "inputs": [
        {
          "internalType": "address",
          "name": "owner",
          "type": "address"
        },
        {
          "internalType": "address",
          "name": "spender",
          "type": "address"
        }
      ],
      "name": "allowance",
      "outputs": [
        {
          "internalType": "uint256",
          "name": "",
          "type": "uint256"
        }
      ],
      "payable": false,
      "stateMutability": "view",
      "type": "function"
    },
    {
      "constant": false,
      "inputs": [
        {
          "internalType": "address",
          "name": "spender",
          "type": "address"
        },
        {
          "internalType": "uint256",
          "name": "amount",
          "type": "uint256"
        }
      ],
      "name": "approve",
      "outputs": [
        {
          "internalType": "bool",
          "name": "",
          "type": "bool"
        }
      ],
      "payable": false,
      "stateMutability": "nonpayable",
      "type": "function"
    },
    {
      "constant": true,
      "inputs": [
        {
          "internalType": "address",
          "name": "owner",
          "type": "address"
        }
      ],
      "name": "balanceOf",
      "outputs": [
        {
          "internalType": "uint256",
          "name": "",
          "type": "uint256"
        }
      ],
      "payable": false,
      "stateMutability": "view",
      "type": "function"
    },
    {
      "constant": false,
      "inputs": [
        {
          "internalType": "address",
          "name": "allocationStrategy_",
          "type": "address"
        }
      ],
      "name": "changeAllocationStrategy",
      "outputs": [],
      "payable": false,
      "stateMutability": "nonpayable",
      "type": "function"
    },
    {
      "constant": false,
      "inputs": [
        {
          "internalType": "uint256",
          "name": "hatID",
          "type": "uint256"
        }
      ],
      "name": "changeHat",
      "outputs": [
        {
          "internalType": "bool",
          "name": "",
          "type": "bool"
        }
      ],
      "payable": false,
      "stateMutability": "nonpayable",
      "type": "function"
    },
    {
      "constant": false,
      "inputs": [
        {
          "internalType": "address",
          "name": "contractAddress",
          "type": "address"
        },
        {
          "internalType": "uint256",
          "name": "hatID",
          "type": "uint256"
        }
      ],
      "name": "changeHatFor",
      "outputs": [],
      "payable": false,
      "stateMutability": "nonpayable",
      "type": "function"
    },
    {
      "constant": false,
      "inputs": [
        {
          "internalType": "address[]",
          "name": "recipients",
          "type": "address[]"
        },
        {
          "internalType": "uint32[]",
          "name": "proportions",
          "type": "uint32[]"
        },
        {
          "internalType": "bool",
          "name": "doChangeHat",
          "type": "bool"
        }
      ],
      "name": "createHat",
      "outputs": [
        {
          "internalType": "uint256",
          "name": "hatID",
          "type": "uint256"
        }
      ],
      "payable": false,
      "stateMutability": "nonpayable",
      "type": "function"
    },
    {
      "constant": true,
      "inputs": [],
      "name": "decimals",
      "outputs": [
        {
          "internalType": "uint256",
          "name": "",
          "type": "uint256"
        }
      ],
      "payable": false,
      "stateMutability": "view",
      "type": "function"
    },
    {
      "constant": true,
      "inputs": [
        {
          "internalType": "address",
          "name": "owner",
          "type": "address"
        }
      ],
      "name": "getAccountStats",
      "outputs": [
        {
          "components": [
            {
              "internalType": "uint256",
              "name": "hatID",
              "type": "uint256"
            },
            {
              "internalType": "uint256",
              "name": "rAmount",
              "type": "uint256"
            },
            {
              "internalType": "uint256",
              "name": "rInterest",
              "type": "uint256"
            },
            {
              "internalType": "uint256",
              "name": "lDebt",
              "type": "uint256"
            },
            {
              "internalType": "uint256",
              "name": "sInternalAmount",
              "type": "uint256"
            },
            {
              "internalType": "uint256",
              "name": "rInterestPayable",
              "type": "uint256"
            },
            {
              "internalType": "uint256",
              "name": "cumulativeInterest",
              "type": "uint256"
            }
          ],
          "internalType": "struct RTokenStructs.AccountStatsView",
          "name": "stats",
          "type": "tuple"
        }
      ],
      "payable": false,
      "stateMutability": "view",
      "type": "function"
    },
    {
      "constant": true,
      "inputs": [],
      "name": "getCurrentAllocationStrategy",
      "outputs": [
        {
          "internalType": "address",
          "name": "allocationStrategy",
          "type": "address"
        }
      ],
      "payable": false,
      "stateMutability": "view",
      "type": "function"
    },
    {
      "constant": true,
      "inputs": [],
      "name": "getCurrentSavingStrategy",
      "outputs": [
        {
          "internalType": "address",
          "name": "",
          "type": "address"
        }
      ],
      "payable": false,
      "stateMutability": "view",
      "type": "function"
    },
    {
      "constant": true,
      "inputs": [],
      "name": "getGlobalStats",
      "outputs": [
        {
          "components": [
            {
              "internalType": "uint256",
              "name": "totalSupply",
              "type": "uint256"
            },
            {
              "internalType": "uint256",
              "name": "totalSavingsAmount",
              "type": "uint256"
            }
          ],
          "internalType": "struct RTokenStructs.GlobalStats",
          "name": "",
          "type": "tuple"
        }
      ],
      "payable": false,
      "stateMutability": "view",
      "type": "function"
    },
    {
      "constant": true,
      "inputs": [
        {
          "internalType": "address",
          "name": "owner",
          "type": "address"
        }
      ],
      "name": "getHatByAddress",
      "outputs": [
        {
          "internalType": "uint256",
          "name": "hatID",
          "type": "uint256"
        },
        {
          "internalType": "address[]",
          "name": "recipients",
          "type": "address[]"
        },
        {
          "internalType": "uint32[]",
          "name": "proportions",
          "type": "uint32[]"
        }
      ],
      "payable": false,
      "stateMutability": "view",
      "type": "function"
    },
    {
      "constant": true,
      "inputs": [
        {
          "internalType": "uint256",
          "name": "hatID",
          "type": "uint256"
        }
      ],
      "name": "getHatByID",
      "outputs": [
        {
          "internalType": "address[]",
          "name": "recipients",
          "type": "address[]"
        },
        {
          "internalType": "uint32[]",
          "name": "proportions",
          "type": "uint32[]"
        }
      ],
      "payable": false,
      "stateMutability": "view",
      "type": "function"
    },
    {
      "constant": true,
      "inputs": [
        {
          "internalType": "uint256",
          "name": "hatID",
          "type": "uint256"
        }
      ],
      "name": "getHatStats",
      "outputs": [
        {
          "components": [
            {
              "internalType": "uint256",
              "name": "useCount",
              "type": "uint256"
            },
            {
              "internalType": "uint256",
              "name": "totalLoans",
              "type": "uint256"
            },
            {
              "internalType": "uint256",
              "name": "totalSavings",
              "type": "uint256"
            }
          ],
          "internalType": "struct RTokenStructs.HatStatsView",
          "name": "stats",
          "type": "tuple"
        }
      ],
      "payable": false,
      "stateMutability": "view",
      "type": "function"
    },
    {
      "constant": true,
      "inputs": [],
      "name": "getMaximumHatID",
      "outputs": [
        {
          "internalType": "uint256",
          "name": "hatID",
          "type": "uint256"
        }
      ],
      "payable": false,
      "stateMutability": "view",
      "type": "function"
    },
    {
      "constant": true,
      "inputs": [],
      "name": "getSavingAssetBalance",
      "outputs": [
        {
          "internalType": "uint256",
          "name": "rAmount",
          "type": "uint256"
        },
        {
          "internalType": "uint256",
          "name": "sOriginalAmount",
          "type": "uint256"
        }
      ],
      "payable": false,
      "stateMutability": "view",
      "type": "function"
    },
    {
      "constant": true,
      "inputs": [
        {
          "internalType": "uint256",
          "name": "",
          "type": "uint256"
        }
      ],
      "name": "hatStats",
      "outputs": [
        {
          "internalType": "uint256",
          "name": "useCount",
          "type": "uint256"
        },
        {
          "internalType": "uint256",
          "name": "totalLoans",
          "type": "uint256"
        },
        {
          "internalType": "uint256",
          "name": "totalInternalSavings",
          "type": "uint256"
        }
      ],
      "payable": false,
      "stateMutability": "view",
      "type": "function"
    },
    {
      "constant": true,
      "inputs": [],
      "name": "ias",
      "outputs": [
        {
          "internalType": "contract IAllocationStrategy",
          "name": "",
          "type": "address"
        }
      ],
      "payable": false,
      "stateMutability": "view",
      "type": "function"
    },
    {
      "constant": false,
      "inputs": [
        {
          "internalType": "contract IAllocationStrategy",
          "name": "allocationStrategy",
          "type": "address"
        },
        {
          "internalType": "string",
          "name": "name_",
          "type": "string"
        },
        {
          "internalType": "string",
          "name": "symbol_",
          "type": "string"
        },
        {
          "internalType": "uint256",
          "name": "decimals_",
          "type": "uint256"
        }
      ],
      "name": "initialize",
      "outputs": [],
      "payable": false,
      "stateMutability": "nonpayable",
      "type": "function"
    },
    {
      "constant": true,
      "inputs": [],
      "name": "initialized",
      "outputs": [
        {
          "internalType": "bool",
          "name": "",
          "type": "bool"
        }
      ],
      "payable": false,
      "stateMutability": "view",
      "type": "function"
    },
    {
      "constant": true,
      "inputs": [
        {
          "internalType": "address",
          "name": "owner",
          "type": "address"
        }
      ],
      "name": "interestPayableOf",
      "outputs": [
        {
          "internalType": "uint256",
          "name": "amount",
          "type": "uint256"
        }
      ],
      "payable": false,
      "stateMutability": "view",
      "type": "function"
    },
    {
      "constant": true,
      "inputs": [],
      "name": "isOwner",
      "outputs": [
        {
          "internalType": "bool",
          "name": "",
          "type": "bool"
        }
      ],
      "payable": false,
      "stateMutability": "view",
      "type": "function"
    },
    {
      "constant": false,
      "inputs": [
        {
          "internalType": "uint256",
          "name": "mintAmount",
          "type": "uint256"
        }
      ],
      "name": "mint",
      "outputs": [
        {
          "internalType": "bool",
          "name": "",
          "type": "bool"
        }
      ],
      "payable": false,
      "stateMutability": "nonpayable",
      "type": "function"
    },
    {
      "constant": false,
      "inputs": [
        {
          "internalType": "uint256",
          "name": "mintAmount",
          "type": "uint256"
        },
        {
          "internalType": "address[]",
          "name": "recipients",
          "type": "address[]"
        },
        {
          "internalType": "uint32[]",
          "name": "proportions",
          "type": "uint32[]"
        }
      ],
      "name": "mintWithNewHat",
      "outputs": [
        {
          "internalType": "bool",
          "name": "",
          "type": "bool"
        }
      ],
      "payable": false,
      "stateMutability": "nonpayable",
      "type": "function"
    },
    {
      "constant": false,
      "inputs": [
        {
          "internalType": "uint256",
          "name": "mintAmount",
          "type": "uint256"
        },
        {
          "internalType": "uint256",
          "name": "hatID",
          "type": "uint256"
        }
      ],
      "name": "mintWithSelectedHat",
      "outputs": [
        {
          "internalType": "bool",
          "name": "",
          "type": "bool"
        }
      ],
      "payable": false,
      "stateMutability": "nonpayable",
      "type": "function"
    },
    {
      "constant": true,
      "inputs": [],
      "name": "name",
      "outputs": [
        {
          "internalType": "string",
          "name": "",
          "type": "string"
        }
      ],
      "payable": false,
      "stateMutability": "view",
      "type": "function"
    },
    {
      "constant": true,
      "inputs": [],
      "name": "owner",
      "outputs": [
        {
          "internalType": "address",
          "name": "",
          "type": "address"
        }
      ],
      "payable": false,
      "stateMutability": "view",
      "type": "function"
    },
    {
      "constant": false,
      "inputs": [
        {
          "internalType": "address",
          "name": "owner",
          "type": "address"
        }
      ],
      "name": "payInterest",
      "outputs": [
        {
          "internalType": "bool",
          "name": "",
          "type": "bool"
        }
      ],
      "payable": false,
      "stateMutability": "nonpayable",
      "type": "function"
    },
    {
      "constant": true,
      "inputs": [],
      "name": "proxiableUUID",
      "outputs": [
        {
          "internalType": "bytes32",
          "name": "",
          "type": "bytes32"
        }
      ],
      "payable": false,
      "stateMutability": "pure",
      "type": "function"
    },
    {
      "constant": true,
      "inputs": [
        {
          "internalType": "address",
          "name": "owner",
          "type": "address"
        }
      ],
      "name": "receivedLoanOf",
      "outputs": [
        {
          "internalType": "uint256",
          "name": "amount",
          "type": "uint256"
        }
      ],
      "payable": false,
      "stateMutability": "view",
      "type": "function"
    },
    {
      "constant": true,
      "inputs": [
        {
          "internalType": "address",
          "name": "owner",
          "type": "address"
        }
      ],
      "name": "receivedSavingsOf",
      "outputs": [
        {
          "internalType": "uint256",
          "name": "amount",
          "type": "uint256"
        }
      ],
      "payable": false,
      "stateMutability": "view",
      "type": "function"
    },
    {
      "constant": false,
      "inputs": [
        {
          "internalType": "uint256",
          "name": "redeemTokens",
          "type": "uint256"
        }
      ],
      "name": "redeem",
      "outputs": [
        {
          "internalType": "bool",
          "name": "",
          "type": "bool"
        }
      ],
      "payable": false,
      "stateMutability": "nonpayable",
      "type": "function"
    },
    {
      "constant": false,
      "inputs": [],
      "name": "redeemAll",
      "outputs": [
        {
          "internalType": "bool",
          "name": "",
          "type": "bool"
        }
      ],
      "payable": false,
      "stateMutability": "nonpayable",
      "type": "function"
    },
    {
      "constant": false,
      "inputs": [
        {
          "internalType": "address",
          "name": "redeemTo",
          "type": "address"
        },
        {
          "internalType": "uint256",
          "name": "redeemTokens",
          "type": "uint256"
        }
      ],
      "name": "redeemAndTransfer",
      "outputs": [
        {
          "internalType": "bool",
          "name": "",
          "type": "bool"
        }
      ],
      "payable": false,
      "stateMutability": "nonpayable",
      "type": "function"
    },
    {
      "constant": false,
      "inputs": [
        {
          "internalType": "address",
          "name": "redeemTo",
          "type": "address"
        }
      ],
      "name": "redeemAndTransferAll",
      "outputs": [
        {
          "internalType": "bool",
          "name": "",
          "type": "bool"
        }
      ],
      "payable": false,
      "stateMutability": "nonpayable",
      "type": "function"
    },
    {
      "constant": false,
      "inputs": [],
      "name": "renounceOwnership",
      "outputs": [],
      "payable": false,
      "stateMutability": "nonpayable",
      "type": "function"
    },
    {
      "constant": true,
      "inputs": [],
      "name": "savingAssetConversionRate",
      "outputs": [
        {
          "internalType": "uint256",
          "name": "",
          "type": "uint256"
        }
      ],
      "payable": false,
      "stateMutability": "view",
      "type": "function"
    },
    {
      "constant": true,
      "inputs": [],
      "name": "savingAssetOrignalAmount",
      "outputs": [
        {
          "internalType": "uint256",
          "name": "",
          "type": "uint256"
        }
      ],
      "payable": false,
      "stateMutability": "view",
      "type": "function"
    },
    {
      "constant": true,
      "inputs": [],
      "name": "symbol",
      "outputs": [
        {
          "internalType": "string",
          "name": "",
          "type": "string"
        }
      ],
      "payable": false,
      "stateMutability": "view",
      "type": "function"
    },
    {
      "constant": true,
      "inputs": [],
      "name": "token",
      "outputs": [
        {
          "internalType": "contract IERC20",
          "name": "",
          "type": "address"
        }
      ],
      "payable": false,
      "stateMutability": "view",
      "type": "function"
    },
    {
      "constant": true,
      "inputs": [],
      "name": "totalSupply",
      "outputs": [
        {
          "internalType": "uint256",
          "name": "",
          "type": "uint256"
        }
      ],
      "payable": false,
      "stateMutability": "view",
      "type": "function"
    },
    {
      "constant": false,
      "inputs": [
        {
          "internalType": "address",
          "name": "dst",
          "type": "address"
        },
        {
          "internalType": "uint256",
          "name": "amount",
          "type": "uint256"
        }
      ],
      "name": "transfer",
      "outputs": [
        {
          "internalType": "bool",
          "name": "",
          "type": "bool"
        }
      ],
      "payable": false,
      "stateMutability": "nonpayable",
      "type": "function"
    },
    {
      "constant": false,
      "inputs": [
        {
          "internalType": "address",
          "name": "dst",
          "type": "address"
        }
      ],
      "name": "transferAll",
      "outputs": [
        {
          "internalType": "bool",
          "name": "",
          "type": "bool"
        }
      ],
      "payable": false,
      "stateMutability": "nonpayable",
      "type": "function"
    },
    {
      "constant": false,
      "inputs": [
        {
          "internalType": "address",
          "name": "src",
          "type": "address"
        },
        {
          "internalType": "address",
          "name": "dst",
          "type": "address"
        }
      ],
      "name": "transferAllFrom",
      "outputs": [
        {
          "internalType": "bool",
          "name": "",
          "type": "bool"
        }
      ],
      "payable": false,
      "stateMutability": "nonpayable",
      "type": "function"
    },
    {
      "constant": true,
      "inputs": [
        {
          "internalType": "address",
          "name": "",
          "type": "address"
        },
        {
          "internalType": "address",
          "name": "",
          "type": "address"
        }
      ],
      "name": "transferAllowances",
      "outputs": [
        {
          "internalType": "uint256",
          "name": "",
          "type": "uint256"
        }
      ],
      "payable": false,
      "stateMutability": "view",
      "type": "function"
    },
    {
      "constant": false,
      "inputs": [
        {
          "internalType": "address",
          "name": "src",
          "type": "address"
        },
        {
          "internalType": "address",
          "name": "dst",
          "type": "address"
        },
        {
          "internalType": "uint256",
          "name": "amount",
          "type": "uint256"
        }
      ],
      "name": "transferFrom",
      "outputs": [
        {
          "internalType": "bool",
          "name": "",
          "type": "bool"
        }
      ],
      "payable": false,
      "stateMutability": "nonpayable",
      "type": "function"
    },
    {
      "constant": false,
      "inputs": [
        {
          "internalType": "address",
          "name": "newOwner",
          "type": "address"
        }
      ],
      "name": "transferOwnership",
      "outputs": [],
      "payable": false,
      "stateMutability": "nonpayable",
      "type": "function"
    },
    {
      "constant": false,
      "inputs": [
        {
          "internalType": "address",
          "name": "newCode",
          "type": "address"
        }
      ],
      "name": "updateCode",
      "outputs": [],
      "payable": false,
      "stateMutability": "nonpayable",
      "type": "function"
    },
    {
      "constant": true,
      "inputs": [],
      "name": "validate",
      "outputs": [],
      "payable": false,
      "stateMutability": "pure",
      "type": "function"
    }
  ],
  "bytecode": "0x60806040819052600080546001600160a01b03191633178082556001600160a01b0316917f8be0079c531659141344cd1fd0a4f28419497f9722a3daafe3b4186f6b6457e0908290a361454b806100576000396000f3fe608060405234801561001057600080fd5b50600436106103a45760003560e01c80636b4169c3116101e9578063bf5bfdfb1161010f578063d8884795116100ad578063f04bf8b31161007c578063f04bf8b31461074c578063f2fde38b1461076e578063fc0c546a14610781578063fdbbf8ac14610789576103a4565b8063d888479514610708578063db006a751461071e578063dd62ed3e14610731578063e192782b14610744576103a4565b8063c200659e116100e9578063c200659e146106c7578063d007c644146106cf578063d271be3f146106e2578063d3ac25c4146106f5576103a4565b8063bf5bfdfb146106bf578063c034d0db146104f5578063c1a2007d14610431576103a4565b80638da5cb5b11610187578063a3a7e7f311610156578063a3a7e7f31461067e578063a9059cbb14610691578063b2bdfa7b146106a4578063b5dbfc1a146106ac576103a4565b80638da5cb5b146106535780638f32d59b1461065b57806395d89b4114610663578063a0712d681461066b576103a4565b806371ee46eb116101c357806371ee46eb1461062557806377ede0511461062d57806381c8d895146103d257806384d4b41014610640576103a4565b80636b4169c3146105f557806370a082311461060a578063715018a61461061d576103a4565b8063313ce567116102ce5780634d12d4b61161026c5780635cde50551161023b5780635cde5055146105a35780635e5c06e2146105b657806363152a50146105da5780636901f668146105ed576103a4565b80634d12d4b6146105535780634fd7c0dd1461056657806352d1902d14610586578063556043ef1461058e576103a4565b80633e20a929116102a85780633e20a9291461051057806346951954146105185780634929fbf71461052d578063496cc16414610540576103a4565b8063313ce567146104ed57806333a581d2146104f5578063388c0b8c146104fd576103a4565b8063158ef93e1161034657806323b872dd1161031557806323b872dd1461049f57806328cdfaeb146104b25780632f2ba814146104d25780632f4350c2146104e5576103a4565b8063158ef93e1461045957806318160ddd146104615780631cda95d514610469578063226e835c1461048a576103a4565b806306fdde031161038257806306fdde0314610409578063095ea7b31461041e57806310f3a6d81461043157806313e23e4114610446576103a4565b80630290cbc8146103a9578063039ab887146103d2578063054ab01a146103e7575b600080fd5b6103bc6103b7366004613592565b61079c565b6040516103c99190614172565b60405180910390f35b6103da61080f565b6040516103c9919061419b565b6103fa6103f5366004613592565b61081b565b6040516103c993929190614382565b61041161084a565b6040516103c991906141b7565b6103bc61042c366004613655565b6108d5565b610439610943565b6040516103c991906140e1565b6103da610454366004613592565b610953565b6103bc610975565b6103da610985565b61047c6104773660046137e0565b61098b565b6040516103c992919061414d565b6104926109a1565b6040516103c99190614427565b6103bc6104ad366004613608565b6109a9565b6104c56104c0366004613592565b610a01565b6040516103c99190614358565b6103bc6104e03660046137e0565b610a87565b6103bc610acc565b6103da610b34565b6103da610b3a565b6103bc61050b366004613885565b610b40565b6103da610b95565b61052b610526366004613592565b610b9f565b005b61052b61053b366004613655565b610c34565b6103da61054e366004613592565b610c8b565b61052b610561366004613747565b610c9d565b6105796105743660046137e0565b610ece565b6040516103c99190614374565b6103da610f10565b610596610f34565b6040516103c991906141a9565b6103da6105b1366004613685565b610f43565b6105c96105c4366004613592565b610ffa565b6040516103c99594939291906143db565b6103da6105e83660046135ce565b611029565b61052b611046565b6105fd61104f565b6040516103c99190614366565b6103da610618366004613592565b61107f565b61052b61109d565b6103da61110b565b6103da61063b366004613592565b611111565b6103bc61064e3660046135ce565b611139565b610439611183565b6103bc611192565b6104116111a3565b6103bc6106793660046137e0565b6111fe565b6103bc61068c366004613592565b611214565b6103bc61069f366004613655565b61125f565b6104396112b1565b6103bc6106ba3660046137fe565b6112c0565b6103da611380565b6103da611386565b6103bc6106dd366004613592565b61138c565b6103bc6106f0366004613655565b6113a2565b61052b610703366004613592565b6113c3565b6107106116ed565b6040516103c99291906143bf565b6103bc61072c3660046137e0565b611702565b6103da61073f3660046135ce565b611723565b6103da61174e565b61075f61075a3660046137e0565b611753565b6040516103c9939291906143cd565b61052b61077c366004613592565b611774565b6105966117a4565b6103da610797366004613592565b6117b3565b60018054810190819055600090336107b3816117e3565b6001600160a01b0381166000908152600c60205260409020600101546107da90859061198c565b600192505060015481146108095760405162461bcd60e51b815260040161080090614338565b60405180910390fd5b50919050565b670de0b6b3a764000081565b6001600160a01b0381166000908152600c602052604090205460608061084083611b14565b9395909450915050565b6002805460408051602060018416156101000260001901909316849004601f810184900484028201840190925281815292918301828280156108cd5780601f106108a2576101008083540402835291602001916108cd565b820191906000526020600020905b8154815290600101906020018083116108b057829003601f168201915b505050505081565b336000818152600a602090815260408083206001600160a01b03871680855292528083208590555191929182907f8c5be1e5ebec7d5bd14f71427d1e84f3dd0314c0f7b2291e5b200ac8c7c3b9259061092f90879061419b565b60405180910390a360019150505b92915050565b6006546001600160a01b03165b90565b6001600160a01b0381166000908152600c60205260409020600401545b919050565b600054600160a01b900460ff1681565b60055481565b60608061099783611b14565b9094909350915050565b63ffffffff81565b600180548101908190556000906109bf856117e3565b6109cb33868686611c76565b6109d4846117e3565b6001915060015481146109f95760405162461bcd60e51b815260040161080090614338565b509392505050565b610a09613243565b6001600160a01b0382166000908152600c6020908152604091829020805484526001810154918401919091526002810154918301919091526004810154606083015260058101546080830152610a5e81611f93565b60a0830152506001600160a01b0382166000908152600d602052604090205460c0820152919050565b60018054810190819055600090610a9e3384611fe6565b610aa7336117e3565b6001915060015481146108095760405162461bcd60e51b815260040161080090614338565b6001805481019081905560009033610ae3816117e3565b6001600160a01b0381166000908152600c6020526040902060010154610b0a90829061198c565b60019250506001548114610b305760405162461bcd60e51b815260040161080090614338565b5090565b60045481565b60001981565b60018054810190819055600090610b573384611fe6565b610b60846120c1565b610b69336117e3565b600191506001548114610b8e5760405162461bcd60e51b815260040161080090614338565b5092915050565b600b546000190190565b610ba7611192565b610bc35760405162461bcd60e51b8152600401610800906142c8565b600054600160a01b900460ff161515600114610bf15760405162461bcd60e51b815260040161080090614318565b610bfa816123bf565b7f34459cf4c63f38e9b4af4ff8f74035bad6157484e669ffde70188afdf9917c6881604051610c2991906140e1565b60405180910390a150565b610c3c611192565b610c585760405162461bcd60e51b8152600401610800906142c8565b610c6182612492565b610c7d5760405162461bcd60e51b815260040161080090614268565b610c878282611fe6565b5050565b600d6020526000908152604090205481565b600054600160a01b900460ff1615610cc75760405162461bcd60e51b815260040161080090614258565b610ccf612498565b600080546001600160a01b0319163317905560018055610cf160028686613280565b50610cfe60038484613280565b506004818155670de0b6b3a7640000600955600680546001600160a01b0319166001600160a01b03898116919091179182905560408051636f307dc360e01b815290519290911692636f307dc3928282019260209290829003018186803b158015610d6857600080fd5b505afa158015610d7c573d6000803e3d6000fd5b505050506040513d601f19601f82011682018060405250610da091908101906135b0565b600780546001600160a01b03929092166001600160a01b031990921691909117905560408051600081830181815260608301845282528251818152602080820190945283830152600b8054600181018083559190925282518051919460029093027f0175b7a638427703f0dbe7bb9bbf987a2551717b34e79f33b5b1008d1fa01db90192610e33928492909101906132fa565b506020828101518051610e4c926001850192019061335b565b5050600080525050600e6020526000197fe710864318d4a32f37d6ce54cb3fadbef648dd12d8dbdf53973564d56b7f881c556006546009546040517faa54229fa6d6451d2cd5d13b5bc60f1230a0f79091118926e9b95d8f4811713a92610ebe926001600160a01b0390911691614132565b60405180910390a1505050505050565b610ed6613406565b6000828152600e60209081526040909120805483526001810154918301919091526002810154610f05906124ad565b604083015250919050565b7fc5f16f0fcc639fa48a6947836d9850f504798523bf8c9a3a87d5876cf622bcf790565b6006546001600160a01b031681565b60018054810190819055604080516020808802828101820190935287825260009392610fbd92918a918a9182919085019084908082843760009201919091525050604080516020808b0282810182019093528a82529093508a92508991829185019084908082843760009201919091525061254b92505050565b91508215610fcf57610fcf3383611fe6565b6001548114610ff05760405162461bcd60e51b815260040161080090614338565b5095945050505050565b600c60205260009081526040902080546001820154600283015460048401546005909401549293919290919085565b600a60209081526000928352604080842090915290825290205481565b600e6000610c87565b611057613427565b600061106460085461278c565b60408051808201909152600554815291016020820152905090565b6001600160a01b03166000908152600c602052604090206001015490565b6110a5611192565b6110c15760405162461bcd60e51b8152600401610800906142c8565b600080546040516001600160a01b03909116907f8be0079c531659141344cd1fd0a4f28419497f9722a3daafe3b4186f6b6457e0908390a3600080546001600160a01b0319169055565b60085481565b6001600160a01b0381166000908152600c6020526040812061113281611f93565b9392505050565b6001805481019081905560009061114f846117e3565b6001600160a01b0384166000908152600c602052604090206001015461117a90339086908690611c76565b610b69836117e3565b6000546001600160a01b031690565b6000546001600160a01b0316331490565b6003805460408051602060026001851615610100026000190190941693909304601f810184900484028201840190925281815292918301828280156108cd5780601f106108a2576101008083540402835291602001916108cd565b60018054810190819055600090610a9e836120c1565b600180548101908190556000903361122b816117e3565b6001600160a01b0381166000908152600c602052604090206001015461125690829081908790611c76565b6107da846117e3565b6001805481019081905560009033611276816117e3565b61128281828787611c76565b61128b856117e3565b60019250506001548114610b8e5760405162461bcd60e51b815260040161080090614338565b6000546001600160a01b031681565b60018054810190819055604080516020808702828101820190935286825260009392849261133c9290918a918a91829185019084908082843760009201919091525050604080516020808b0282810182019093528a82529093508a92508991829185019084908082843760009201919091525061254b92505050565b90506113483382611fe6565b611351886120c1565b61135a336117e3565b60019250506001548114610ff05760405162461bcd60e51b815260040161080090614338565b60015481565b60095481565b60018054810190819055600090610aa7836117e3565b60018054810190819055600090336113b9816117e3565b61128b858561198c565b600180548101908190556113d5611192565b6113f15760405162461bcd60e51b8152600401610800906142c8565b60075460408051636f307dc360e01b8152905184926001600160a01b039081169290841691636f307dc391600480820192602092909190829003018186803b15801561143c57600080fd5b505afa158015611450573d6000803e3d6000fd5b505050506040513d601f19601f8201168201806040525061147491908101906135b0565b6001600160a01b03161461149a5760405162461bcd60e51b815260040161080090614298565b600680546001600160a01b038381166001600160a01b031983161790925560055460405163852a12e360e01b81529290911691600091839163852a12e3916114e49160040161419b565b602060405180830381600087803b1580156114fe57600080fd5b505af1158015611512573d6000803e3d6000fd5b505050506040513d601f19601f820116820180604052506115369190810190613729565b60075460065460055460405163095ea7b360e01b81529394506001600160a01b039283169363095ea7b39361157093169190600401614132565b602060405180830381600087803b15801561158a57600080fd5b505af115801561159e573d6000803e3d6000fd5b505050506040513d601f19601f820116820180604052506115c2919081019061370b565b6115de5760405162461bcd60e51b815260040161080090614248565b600654600554604051630305da4f60e61b81526000926001600160a01b03169163c17693c091611611919060040161419b565b602060405180830381600087803b15801561162b57600080fd5b505af115801561163f573d6000803e3d6000fd5b505050506040513d601f19601f820116820180604052506116639190810190613729565b6009549091506116898261167d858463ffffffff6127eb16565b9063ffffffff61282516565b60098190556040517faa54229fa6d6451d2cd5d13b5bc60f1230a0f79091118926e9b95d8f4811713a916116bf918a9190614132565b60405180910390a150505050506001548114610c875760405162461bcd60e51b815260040161080090614338565b6008546000906116fc8161278c565b91509091565b6001805481019081905560009033611719816117e3565b6107da818561198c565b6001600160a01b039182166000908152600a6020908152604080832093909416825291909152205490565b603281565b600e6020526000908152604090208054600182015460029092015490919083565b61177c611192565b6117985760405162461bcd60e51b8152600401610800906142c8565b6117a181612867565b50565b6007546001600160a01b031681565b6001600160a01b0381166000908152600c60205260408120600581015482906117db906124ad565b949350505050565b6001600160a01b038082166000908152600c60209081526040808320600d8352818420600654835163a6afed9560e01b815293519296919591169363a6afed95936004808201949293918390030190829087803b15801561184357600080fd5b505af1158015611857573d6000803e3d6000fd5b505050506040513d601f19601f8201168201806040525061187b919081019061370b565b6118975760405162461bcd60e51b8152600401610800906141c8565b60006118a283611f93565b905080156119865781546118bc908263ffffffff6128e816565b825560028301546118d3908263ffffffff6128e816565b600284015560018301546118ed908263ffffffff6128e816565b6001840155600554611905908263ffffffff6128e816565b6005556040516001600160a01b038516907f16cbc685358ca7d4e6b273dcdf2cb5d18c80b950aa2319b519756cd016233a6c9061194390849061419b565b60405180910390a2836001600160a01b031660006001600160a01b03166000805160206144e98339815191528360405161197d919061419b565b60405180910390a35b50505050565b336000908152600c60205260409020816119b85760405162461bcd60e51b8152600401610800906142e8565b80600101548211156119dc5760405162461bcd60e51b815260040161080090614288565b60006119e8338461290d565b6001830154909150611a00908463ffffffff6129aa16565b6001830181905560028301541115611a1d57600182015460028301555b600554611a30908463ffffffff6129aa16565b600555600854811015611a4b57600880548290039055611a51565b60006008555b60075460405163a9059cbb60e01b81526001600160a01b039091169063a9059cbb90611a839087908790600401614132565b602060405180830381600087803b158015611a9d57600080fd5b505af1158015611ab1573d6000803e3d6000fd5b505050506040513d601f19601f82011682018060405250611ad5919081019061370b565b611af15760405162461bcd60e51b8152600401610800906142a8565b60405160009033906000805160206144e98339815191529061197d90879061419b565b6060808215801590611b2857506000198314155b15611c5757611b35613441565b600b8481548110611b4257fe5b906000526020600020906002020160405180604001604052908160008201805480602002602001604051908101604052809291908181526020018280548015611bb457602002820191906000526020600020905b81546001600160a01b03168152600190910190602001808311611b96575b5050505050815260200160018201805480602002602001604051908101604052809291908181526020018280548015611c3857602002820191906000526020600020906000905b82829054906101000a900463ffffffff1663ffffffff1681526020019060040190602082600301049283019260010382029150808411611bfb5790505b5050505050815250509050806000015192508060200151915050611c71565b505060408051600080825260208201908152818301909252905b915091565b816001600160a01b0316836001600160a01b03161415611ca85760405162461bcd60e51b815260040161080090614278565b6001600160a01b0383166000908152600c6020526040902060010154811115611ce35760405162461bcd60e51b8152600401610800906142d8565b60006001600160a01b038581169085161415611d025750600019611d2a565b506001600160a01b038084166000908152600a60209081526040808320938816835292905220545b81811015611d4a5760405162461bcd60e51b8152600401610800906141d8565b6000611d5c828463ffffffff6129aa16565b6001600160a01b0386166000908152600c602052604081206001015491925090611d8c908563ffffffff6129aa16565b6001600160a01b0386166000908152600c602052604081206001015491925090611dbc908663ffffffff6128e816565b6001600160a01b038088166000908152600c602052604080822054928b16825290205491925081149015801590611e0957506001600160a01b0387166000908152600c6020526040902054155b8015611e2f57506001600160a01b0388166000908152600c602052604090205460001914155b15611e58576001600160a01b0388166000908152600c6020526040902054611e58908890611fe6565b6001600160a01b038089166000908152600c60205260408082206001908101879055928a1682529020018290556000198514611eb7576001600160a01b038089166000908152600a60209081526040808320938d168352929052208490555b80611edb576000611ec889886129ec565b9050611ed5888883612a9c565b50611f02565b6001600160a01b0388166000908152600c6020526040902054611f02908990899089612ce3565b6001600160a01b0388166000908152600c6020526040902060018101546002909101541115611f4f576001600160a01b0388166000908152600c6020526040902060018101546002909101555b866001600160a01b0316886001600160a01b03166000805160206144e983398151915288604051611f80919061419b565b60405180910390a3505050505050505050565b600080611fa383600501546124ad565b9050611fc0836002015484600401546128e890919063ffffffff16565b811115611fdc5782600201548360040154820303915050610970565b6000915050610970565b600019811480611ff75750600b5481105b6120135760405162461bcd60e51b815260040161080090614218565b6001600160a01b0382166000908152600c602090815260408083208054808552600e9093528184208585529190932084845560018401541561207257600061205f8786600101546129ec565b905061207087866001015483612a9c565b505b815460001901825580546001018155604051859084906001600160a01b038916907f356f094000bcd3968ad51bf92c9d115ed7294626dea8ae4cc5b24273702e111390600090a4505050505050565b600754604051636eb1769f60e11b815282916001600160a01b03169063dd62ed3e906120f390339030906004016140ef565b60206040518083038186803b15801561210b57600080fd5b505afa15801561211f573d6000803e3d6000fd5b505050506040513d601f19601f820116820180604052506121439190810190613729565b10156121615760405162461bcd60e51b8152600401610800906142f8565b336000818152600c60205260409081902060075491516323b872dd60e01b815290926001600160a01b03909216916323b872dd916121a691903090879060040161410a565b602060405180830381600087803b1580156121c057600080fd5b505af11580156121d4573d6000803e3d6000fd5b505050506040513d601f19601f820116820180604052506121f8919081019061370b565b6122145760405162461bcd60e51b8152600401610800906142a8565b60075460065460405163095ea7b360e01b81526001600160a01b039283169263095ea7b39261224a929116908690600401614132565b602060405180830381600087803b15801561226457600080fd5b505af1158015612278573d6000803e3d6000fd5b505050506040513d601f19601f8201168201806040525061229c919081019061370b565b6122b85760405162461bcd60e51b815260040161080090614248565b600654604051630305da4f60e61b81526000916001600160a01b03169063c17693c0906122e990869060040161419b565b602060405180830381600087803b15801561230357600080fd5b505af1158015612317573d6000803e3d6000fd5b505050506040513d601f19601f8201168201806040525061233b9190810190613729565b600554909150612351908463ffffffff6128e816565b6005556001820154612369908463ffffffff6128e816565b6001830155600854612381908263ffffffff6128e816565b600855600061238f82612e36565b905061239c338583612a9c565b60405133906000906000805160206144e98339815191529061197d90889061419b565b806001600160a01b03166352d1902d6040518163ffffffff1660e01b815260040160206040518083038186803b1580156123f857600080fd5b505afa15801561240c573d6000803e3d6000fd5b505050506040513d601f19601f820116820180604052506124309190810190613729565b7fc5f16f0fcc639fa48a6947836d9850f504798523bf8c9a3a87d5876cf622bcf71461246e5760405162461bcd60e51b8152600401610800906141e8565b7fc5f16f0fcc639fa48a6947836d9850f504798523bf8c9a3a87d5876cf622bcf755565b3b151590565b6000805460ff60a01b1916600160a01b179055565b600061093d60095461167d600660009054906101000a90046001600160a01b03166001600160a01b031663182df0f56040518163ffffffff1660e01b815260040160206040518083038186803b15801561250657600080fd5b505afa15801561251a573d6000803e3d6000fd5b505050506040513d601f19601f8201168201806040525061253e9190810190613729565b859063ffffffff6127eb16565b600080600084511161256f5760405162461bcd60e51b815260040161080090614348565b6032845111156125915760405162461bcd60e51b815260040161080090614308565b82518451146125b25760405162461bcd60e51b815260040161080090614208565b506000805b84518210156126685760008483815181106125ce57fe5b602002602001015163ffffffff16116125f95760405162461bcd60e51b815260040161080090614328565b60006001600160a01b031685838151811061261057fe5b60200260200101516001600160a01b0316141561263f5760405162461bcd60e51b815260040161080090614238565b83828151811061264b57fe5b602002602001015163ffffffff16810190508160010191506125b7565b600091505b83518210156126d2578063ffffffff801685848151811061268a57fe5b602002602001015163ffffffff1602816126a057fe5b048483815181106126ad57fe5b602002602001019063ffffffff16908163ffffffff168152505081600101915061266d565b604080518082019091528581526020808201869052600b80546001818101808455600093909352845180519195939460029093027f0175b7a638427703f0dbe7bb9bbf987a2551717b34e79f33b5b1008d1fa01db90192612738928492909101906132fa565b506020828101518051612751926001850192019061335b565b505050039250827f755babe5551737dcd4c723af196cff0ed1fa99a4c6957c62262d6b1425f864aa60405160405180910390a2505092915050565b600061093d670de0b6b3a764000061167d600660009054906101000a90046001600160a01b03166001600160a01b031663182df0f56040518163ffffffff1660e01b815260040160206040518083038186803b15801561250657600080fd5b6000826127fa5750600061093d565b8282028284828161280757fe5b04146111325760405162461bcd60e51b8152600401610800906142b8565b600061113283836040518060400160405280601a81526020017f536166654d6174683a206469766973696f6e206279207a65726f000000000000815250612e59565b6001600160a01b03811661288d5760405162461bcd60e51b8152600401610800906141f8565b600080546040516001600160a01b03808516939216917f8be0079c531659141344cd1fd0a4f28419497f9722a3daafe3b4186f6b6457e091a3600080546001600160a01b0319166001600160a01b0392909216919091179055565b6000828201838110156111325760405162461bcd60e51b815260040161080090614228565b60065460405163852a12e360e01b81526000916001600160a01b03169063852a12e39061293e90859060040161419b565b602060405180830381600087803b15801561295857600080fd5b505af115801561296c573d6000803e3d6000fd5b505050506040513d601f19601f820116820180604052506129909190810190613729565b9050600061299d82612e36565b9050610b8e848483612e90565b600061113283836040518060400160405280601e81526020017f536166654d6174683a207375627472616374696f6e206f766572666c6f770000815250613087565b6006546040805163a6afed9560e01b815290516000926001600160a01b03169163a6afed9591600480830192602092919082900301818787803b158015612a3257600080fd5b505af1158015612a46573d6000803e3d6000fd5b505050506040513d601f19601f82011682018060405250612a6a919081019061370b565b612a865760405162461bcd60e51b8152600401610800906141c8565b612a8f826130b3565b905061093d838383612e90565b6001600160a01b0383166000908152600c602052604081208054909190600b9060001914612acb578254612ace565b60005b81548110612ad857fe5b600091825260208220600290910201805490925015612c945750600084845b6001840154831015612c8d576000846000018481548110612b1457fe5b60009182526020808320909101546001600160a01b0316808352600c9091526040822060018801549193509160001990910186149081612ba15763ffffffff8016612b94896001018981548110612b6757fe5b600091825260209091206008820401548e916007166004026101000a900463ffffffff908116906127eb16565b81612b9b57fe5b04612ba3565b855b6001600160a01b038516600090815260038b016020526040902054909150612bd1908263ffffffff6128e816565b6001600160a01b038516600090815260038b0160205260409020556004830154612c01908263ffffffff6128e816565b6004840155612c108682613152565b9550600082612c3f5763ffffffff8016612c328a6001018a81548110612b6757fe5b81612c3957fe5b04612c41565b855b6005850154909150612c59908263ffffffff6128e816565b6005850155612c688682613152565b9550612c7d8d868c600001546001868661316d565b5050505050826001019250612af7565b5050612cdb565b6004830154612ca9908663ffffffff6128e816565b60048401556005830154612cc3908563ffffffff6128e816565b60058401558254612cdb90879081906001898961316d565b505050505050565b600660009054906101000a90046001600160a01b03166001600160a01b031663a6afed956040518163ffffffff1660e01b8152600401602060405180830381600087803b158015612d3357600080fd5b505af1158015612d47573d6000803e3d6000fd5b505050506040513d601f19601f82011682018060405250612d6b919081019061370b565b612d875760405162461bcd60e51b8152600401610800906141c8565b6001600160a01b038085166000908152600c60205260408082209286168252812090612db2846130b3565b9050612dc2836004015485613152565b60048401556005830154612dd69082613152565b6005840155612dea8780876000888661316d565b6004820154612dff908563ffffffff6128e816565b60048301556005820154612e19908263ffffffff6128e816565b6005830155612e2d8680876001888661316d565b50505050505050565b600061093d670de0b6b3a764000061167d600954856127eb90919063ffffffff16565b60008183612e7a5760405162461bcd60e51b815260040161080091906141b7565b506000838581612e8657fe5b0495945050505050565b6001600160a01b0383166000908152600c602052604081208054909190600b9060001914612ebf578254612ec2565b60005b81548110612ecc57fe5b6000918252602090912060029091020180549091501561304657838360005b600184015481101561303e576000846000018281548110612f0857fe5b60009182526020808320909101546001600160a01b0316808352600c9091526040822060018801549193509160001990910184149081612f685763ffffffff8016612f5b896001018781548110612b6757fe5b81612f6257fe5b04612f6a565b865b9050612f7a836004015482613152565b60048401556001600160a01b038416600090815260038a016020526040902054612fa49082613152565b6001600160a01b038516600090815260038b016020526040902055612fc98782613152565b9650600082612ff85763ffffffff8016612feb8a6001018881548110612b6757fe5b81612ff257fe5b04612ffa565b865b905061300a846005015482613152565b60058501556130198782613152565b965061302e8d868c600001546000868661316d565b5050505050806001019050612eeb565b505050613080565b613054826004015485613152565b600483015560058201546130689084613152565b6005830155815461308090869081906000888861316d565b5050505050565b600081848411156130ab5760405162461bcd60e51b815260040161080091906141b7565b505050900390565b600061093d600660009054906101000a90046001600160a01b03166001600160a01b031663182df0f56040518163ffffffff1660e01b815260040160206040518083038186803b15801561310657600080fd5b505afa15801561311a573d6000803e3d6000fd5b505050506040513d601f19601f8201168201806040525061313e9190810190613729565b60095461167d90859063ffffffff6127eb16565b6000818310156131645750600061093d565b5080820361093d565b6000600e6000868152602001908152602001600020905084866001600160a01b0316886001600160a01b03167f7fb238306664f9cc50083b666d8979f411dd72154c6e9bf558c76b39e14e7d298787876040516131cc93929190614180565b60405180910390a483156132135760018101546131ef908463ffffffff6128e816565b60018201556002810154613209908363ffffffff6128e816565b6002820155612e2d565b613221816001015484613152565b600182015560028101546132359083613152565b600282015550505050505050565b6040518060e00160405280600081526020016000815260200160008152602001600081526020016000815260200160008152602001600081525090565b828054600181600116156101000203166002900490600052602060002090601f016020900481019282601f106132c15782800160ff198235161785556132ee565b828001600101855582156132ee579182015b828111156132ee5782358255916020019190600101906132d3565b50610b3092915061345b565b82805482825590600052602060002090810192821561334f579160200282015b8281111561334f57825182546001600160a01b0319166001600160a01b0390911617825560209092019160019091019061331a565b50610b30929150613475565b828054828255906000526020600020906007016008900481019282156133fa5791602002820160005b838211156133c857835183826101000a81548163ffffffff021916908363ffffffff1602179055509260200192600401602081600301049283019260010302613384565b80156133f85782816101000a81549063ffffffff02191690556004016020816003010492830192600103026133c8565b505b50610b30929150613499565b60405180606001604052806000815260200160008152602001600081525090565b604051806040016040528060008152602001600081525090565b604051806040016040528060608152602001606081525090565b61095091905b80821115610b305760008155600101613461565b61095091905b80821115610b305780546001600160a01b031916815560010161347b565b61095091905b80821115610b3057805463ffffffff1916815560010161349f565b803561093d816144b9565b805161093d816144b9565b60008083601f8401126134e257600080fd5b50813567ffffffffffffffff8111156134fa57600080fd5b60208301915083602082028301111561351257600080fd5b9250929050565b803561093d816144cd565b805161093d816144cd565b805161093d816144d6565b803561093d816144df565b60008083601f84011261355757600080fd5b50813567ffffffffffffffff81111561356f57600080fd5b60208301915083600182028301111561351257600080fd5b803561093d816144d6565b6000602082840312156135a457600080fd5b60006117db84846134ba565b6000602082840312156135c257600080fd5b60006117db84846134c5565b600080604083850312156135e157600080fd5b60006135ed85856134ba565b92505060206135fe858286016134ba565b9150509250929050565b60008060006060848603121561361d57600080fd5b600061362986866134ba565b935050602061363a868287016134ba565b925050604061364b86828701613587565b9150509250925092565b6000806040838503121561366857600080fd5b600061367485856134ba565b92505060206135fe85828601613587565b60008060008060006060868803121561369d57600080fd5b853567ffffffffffffffff8111156136b457600080fd5b6136c0888289016134d0565b9550955050602086013567ffffffffffffffff8111156136df57600080fd5b6136eb888289016134d0565b935093505060406136fe88828901613519565b9150509295509295909350565b60006020828403121561371d57600080fd5b60006117db8484613524565b60006020828403121561373b57600080fd5b60006117db848461352f565b6000806000806000806080878903121561376057600080fd5b600061376c898961353a565b965050602087013567ffffffffffffffff81111561378957600080fd5b61379589828a01613545565b9550955050604087013567ffffffffffffffff8111156137b457600080fd5b6137c089828a01613545565b935093505060606137d389828a01613587565b9150509295509295509295565b6000602082840312156137f257600080fd5b60006117db8484613587565b60008060008060006060868803121561381657600080fd5b60006138228888613587565b955050602086013567ffffffffffffffff81111561383f57600080fd5b61384b888289016134d0565b9450945050604086013567ffffffffffffffff81111561386a57600080fd5b613876888289016134d0565b92509250509295509295909350565b6000806040838503121561389857600080fd5b60006136748585613587565b60006138b083836138d3565b505060200190565b60006138b083836140d8565b6138cd81614478565b82525050565b6138cd81614448565b60006138e78261443b565b6138f1818561443f565b93506138fc83614435565b8060005b8381101561392a57815161391488826138a4565b975061391f83614435565b925050600101613900565b509495945050505050565b60006139408261443b565b61394a818561443f565b935061395583614435565b8060005b8381101561392a57815161396d88826138b8565b975061397883614435565b925050600101613959565b6138cd81614453565b6138cd81610950565b6138cd81614458565b60006139a98261443b565b6139b3818561443f565b93506139c3818560208601614483565b6139cc816144af565b9093019392505050565b60006139e360158361443f565b741858d8dc9d59525b9d195c995cdd0819985a5b1959605a1b815260200192915050565b6000613a1460218361443f565b7f4e6f7420656e6f75676820616c6c6f77616e636520666f72207472616e7366658152603960f91b602082015260400192915050565b6000613a57600e8361443f565b6d4e6f7420636f6d70617469626c6560901b815260200192915050565b6000613a8160268361443f565b7f4f776e61626c653a206e6577206f776e657220697320746865207a65726f206181526564647265737360d01b602082015260400192915050565b6000613ac960208361443f565b7f496e76616c6964206861743a206c656e677468206e6f74206d61746368696e67815260200192915050565b6000613b02600e8361443f565b6d125b9d985b1a59081a185d08125160921b815260200192915050565b6000613b2c601b8361443f565b7f536166654d6174683a206164646974696f6e206f766572666c6f770000000000815260200192915050565b6000613b6560288361443f565b7f496e76616c6964206861743a20726563697069656e742073686f756c64206e6f815267074206265203078360c41b602082015260400192915050565b6000613baf60148361443f565b731d1bdad95b88185c1c1c9bdd994819985a5b195960621b815260200192915050565b6000613bdf60298361443f565b7f546865206c6962726172792068617320616c7265616479206265656e20696e698152683a34b0b634bd32b21760b91b602082015260400192915050565b6000613c2a602e8361443f565b7f41646d696e2063616e206f6e6c79206368616e67652068617420666f7220636f81526d6e7472616374206164647265737360901b602082015260400192915050565b6000613c7a60188361443f565b7f7372632073686f756c64206e6f7420657175616c206473740000000000000000815260200192915050565b6000613cb3601c8361443f565b7f4e6f7420656e6f7567682062616c616e636520746f2072656465656d00000000815260200192915050565b6000613cec60328361443f565b7f4e65772073747261746567792073686f756c642068617665207468652073616d81527119481d5b99195c9b1e5a5b99c8185cdcd95d60721b602082015260400192915050565b6000613d4060158361443f565b741d1bdad95b881d1c985b9cd9995c8819985a5b1959605a1b815260200192915050565b6000613d7160218361443f565b7f536166654d6174683a206d756c7469706c69636174696f6e206f766572666c6f8152607760f81b602082015260400192915050565b6000613db460208361443f565b7f4f776e61626c653a2063616c6c6572206973206e6f7420746865206f776e6572815260200192915050565b6000613ded601e8361443f565b7f4e6f7420656e6f7567682062616c616e636520746f207472616e736665720000815260200192915050565b6000613e26601c8361443f565b7f52656465656d20616d6f756e742063616e6e6f74206265207a65726f00000000815260200192915050565b6000613e5f60148361443f565b734e6f7420656e6f75676820616c6c6f77616e636560601b815260200192915050565b6000613e8f60328361443f565b7f496e76616c696c64206861743a206d6178696d756d206e756d626572206f66208152711c9958da5c1a595b9d1cc81c995858da195960721b602082015260400192915050565b6000613ee360338361443f565b7f546865206c696272617279206973206c6f636b65642e204e6f206469726563748152721013b1b0b636139034b99030b63637bbb2b21760691b602082015260400192915050565b6000613f38602f8361443f565b7f496e76616c6964206861743a2070726f706f7274696f6e2073686f756c64206281526e065206c6172676572207468616e203608c1b602082015260400192915050565b6000613f89601f8361443f565b7f5265656e7472616e637947756172643a207265656e7472616e742063616c6c00815260200192915050565b6000613fc260238361443f565b7f496e76616c6964206861743a206174206c65617374206f6e6520726563697069815262195b9d60ea1b602082015260400192915050565b805160e083019061400b848261398c565b50602082015161401e602085018261398c565b506040820151614031604085018261398c565b506060820151614044606085018261398c565b506080820151614057608085018261398c565b5060a082015161406a60a085018261398c565b5060c082015161198660c085018261398c565b8051604083019061408e848261398c565b506020820151611986602085018261398c565b805160608301906140b2848261398c565b5060208201516140c5602085018261398c565b506040820151611986604085018261398c565b6138cd8161446f565b6020810161093d82846138d3565b604081016140fd82856138c4565b61113260208301846138d3565b6060810161411882866138c4565b61412560208301856138d3565b6117db604083018461398c565b6040810161414082856138d3565b611132602083018461398c565b6040808252810161415e81856138dc565b905081810360208301526117db8184613935565b6020810161093d8284613983565b6060810161418e8286613983565b614125602083018561398c565b6020810161093d828461398c565b6020810161093d8284613995565b60208082528101611132818461399e565b6020808252810161093d816139d6565b6020808252810161093d81613a07565b6020808252810161093d81613a4a565b6020808252810161093d81613a74565b6020808252810161093d81613abc565b6020808252810161093d81613af5565b6020808252810161093d81613b1f565b6020808252810161093d81613b58565b6020808252810161093d81613ba2565b6020808252810161093d81613bd2565b6020808252810161093d81613c1d565b6020808252810161093d81613c6d565b6020808252810161093d81613ca6565b6020808252810161093d81613cdf565b6020808252810161093d81613d33565b6020808252810161093d81613d64565b6020808252810161093d81613da7565b6020808252810161093d81613de0565b6020808252810161093d81613e19565b6020808252810161093d81613e52565b6020808252810161093d81613e82565b6020808252810161093d81613ed6565b6020808252810161093d81613f2b565b6020808252810161093d81613f7c565b6020808252810161093d81613fb5565b60e0810161093d8284613ffa565b6040810161093d828461407d565b6060810161093d82846140a1565b60608101614390828661398c565b81810360208301526143a281856138dc565b905081810360408301526143b68184613935565b95945050505050565b60408101614140828561398c565b6060810161418e828661398c565b60a081016143e9828861398c565b6143f6602083018761398c565b614403604083018661398c565b614410606083018561398c565b61441d608083018461398c565b9695505050505050565b6020810161093d82846140d8565b60200190565b5190565b90815260200190565b600061093d82614463565b151590565b600061093d82614448565b6001600160a01b031690565b63ffffffff1690565b600061093d82614458565b60005b8381101561449e578181015183820152602001614486565b838111156119865750506000910152565b601f01601f191690565b6144c281614448565b81146117a157600080fd5b6144c281614453565b6144c281610950565b6144c28161445856feddf252ad1be2c89b69c2b068fc378daa952ba7f163c4a11628f55a4df523b3efa365627a7a7231582026b0389252ba0eaea0ad9eee340bf4f32039eab8f6c61ebfe87dcbf83f5fe6186c6578706572696d656e74616cf564736f6c634300050c0040",
  "source": "pragma solidity >=0.5.10 <0.6.0;\npragma experimental ABIEncoderV2;\n\nimport {RToken} from '../RToken.sol';\n\n/**\n * @dev Test RTokenStorage Layout\n */\ncontract RTokenStorageLayoutTester is RToken {\n    function validate() public pure {\n        uint256 slot;\n        uint256 offset;\n\n        // address public _owner;\n        assembly { slot:= _owner_slot offset := _owner_offset }\n        require (slot == 0 && offset == 0, \"_owner changed location\");\n\n        // bool public initialized;\n        assembly { slot:= initialized_slot offset := initialized_offset }\n        require (slot == 0 && offset == 20, \"initialized changed location\");\n\n        // uint256 public _guardCounter;\n        assembly { slot:= _guardCounter_slot offset := _guardCounter_offset }\n        require (slot == 1 && offset == 0, \"_guardCounter changed location\");\n\n        // string public name;\n        assembly { slot:= name_slot offset := name_offset }\n        require (slot == 2 && offset == 0, \"name changed location\");\n\n        // string public symbol;\n        assembly { slot:= symbol_slot offset := symbol_offset }\n        require (slot == 3 && offset == 0, \"symbol changed location\");\n\n        // string public decimals;\n        assembly { slot:= decimals_slot offset := decimals_offset }\n        require (slot == 4 && offset == 0, \"decimals changed location\");\n\n        // string public totalSupply;\n        assembly { slot:= totalSupply_slot offset := totalSupply_offset }\n        require (slot == 5 && offset == 0, \"totalSupply changed location\");\n\n        // string public ias;\n        assembly { slot:= ias_slot offset := ias_offset }\n        require (slot == 6 && offset == 0, \"ias changed location\");\n\n        // string public token;\n        assembly { slot:= token_slot offset := token_offset }\n        require (slot == 7 && offset == 0, \"token changed location\");\n\n        // string public savingAssetOrignalAmount;\n        assembly { slot:= savingAssetOrignalAmount_slot offset := savingAssetOrignalAmount_offset }\n        require (slot == 8 && offset == 0, \"savingAssetOrignalAmount changed location\");\n\n        // string public savingAssetConversionRate;\n        assembly { slot:= savingAssetConversionRate_slot offset := savingAssetConversionRate_offset }\n        require (slot == 9 && offset == 0, \"savingAssetOrignalAmount changed location\");\n\n        // string public transferAllowances;\n        assembly { slot:= transferAllowances_slot offset := transferAllowances_offset }\n        require (slot == 10 && offset == 0, \"savingAssetOrignalAmount changed location\");\n\n        // string public hats;\n        assembly { slot:= hats_slot offset := hats_offset }\n        require (slot == 11 && offset == 0, \"hats changed location\");\n\n        // string public accounts;\n        assembly { slot:= accounts_slot offset := accounts_offset }\n        require (slot == 12 && offset == 0, \"accounts changed location\");\n\n        /* Account storage account = accounts[address(0)];\n        assembly { slot:= account.hatID_slot offset := account.hatID_offset }\n        require (slot == 12 && offset == 0, \"accounts changed location\"); */\n\n        // string public accountStats;\n        assembly { slot:= accountStats_slot offset := accountStats_offset }\n        require (slot == 13 && offset == 0, \"accountStats changed location\");\n\n        // string public hatStats;\n        assembly { slot:= hatStats_slot offset := hatStats_offset }\n        require (slot == 14 && offset == 0, \"hatStats changed location\");\n    }\n}\n",
  "sourcePath": "/Users/william/Development/Ethereum/StakeCapitalRepos/rtoken-contracts/contracts/test/StorageLayout.sol",
  "compiler": {
    "name": "solc",
    "version": "0.5.12+commit.7709ece9.Emscripten.clang"
  },
  "schemaVersion": "3.0.16",
  "updatedAt": "2019-11-25T09:25:33.323Z",
  "devdoc": {
    "details": "Test RTokenStorage Layout",
    "methods": {
      "changeAllocationStrategy(address)": {
        "details": "IRToken.changeAllocationStrategy implementation"
      },
      "changeHat(uint256)": {
        "details": "IRToken.changeHat implementation"
      },
      "changeHatFor(address,uint256)": {
        "details": "IRToken.changeHatFor implementation"
      },
      "createHat(address[],uint32[],bool)": {
        "details": "IRToken.createHat implementation"
      },
      "getAccountStats(address)": {
        "details": "IRToken.getAccountStats implementation"
      },
      "getCurrentAllocationStrategy()": {
        "details": "IRToken.changeHatFor implementation"
      },
      "getCurrentSavingStrategy()": {
        "details": "IRToken.getCurrentSavingStrategy implementation"
      },
      "getGlobalStats()": {
        "details": "IRToken.getAccountStats implementation!1"
      },
      "getHatByAddress(address)": {
        "details": "IRToken.getHatByAddress implementation"
      },
      "getHatByID(uint256)": {
        "details": "IRToken.getHatByID implementation"
      },
      "getHatStats(uint256)": {
        "details": "IRToken.getHatStats implementation"
      },
      "getMaximumHatID()": {
        "details": "IRToken.getMaximumHatID implementation"
      },
      "getSavingAssetBalance()": {
        "details": "IRToken.getSavingAssetBalance implementation"
      },
      "interestPayableOf(address)": {
        "details": "IRToken.interestPayableOf implementation"
      },
      "isOwner()": {
        "details": "Returns true if the caller is the current owner."
      },
      "mint(uint256)": {
        "details": "IRToken.mint implementation"
      },
      "mintWithNewHat(uint256,address[],uint32[])": {
        "details": "IRToken.mintWithNewHat implementation"
      },
      "mintWithSelectedHat(uint256,uint256)": {
        "details": "IRToken.mintWithSelectedHat implementation"
      },
      "owner()": {
        "details": "Returns the address of the current owner."
      },
      "payInterest(address)": {
        "details": "IRToken.payInterest implementation"
      },
      "receivedLoanOf(address)": {
        "details": "IRToken.receivedLoanOf implementation"
      },
      "receivedSavingsOf(address)": {
        "details": "IRToken.receivedSavingsOf implementation"
      },
      "redeem(uint256)": {
        "details": "IRToken.redeem implementation     It withdraws equal amount of initially supplied underlying assets"
      },
      "redeemAll()": {
        "details": "IRToken.redeemAll implementation"
      },
      "redeemAndTransfer(address,uint256)": {
        "details": "IRToken.redeemAndTransfer implementation"
      },
      "redeemAndTransferAll(address)": {
        "details": "IRToken.redeemAndTransferAll implementation"
      },
      "renounceOwnership()": {
        "details": "Leaves the contract without owner. It will not be possible to call `onlyOwner` functions anymore. Can only be called by the current owner.     * > Note: Renouncing ownership will leave the contract without an owner, thereby removing any functionality that is only available to the owner."
      },
      "transferAll(address)": {
        "details": "IRToken.transferAll implementation"
      },
      "transferAllFrom(address,address)": {
        "details": "IRToken.transferAllFrom implementation"
      },
      "transferOwnership(address)": {
        "details": "Transfers ownership of the contract to a new account (`newOwner`). Can only be called by the current owner."
      },
      "updateCode(address)": {
        "details": "Update the rToken logic contract code"
      }
    }
  },
  "userdoc": {
    "methods": {
      "allowance(address,address)": {
        "notice": "Returns the remaining number of tokens that `spender` will be allowed to spend on behalf of `owner` through `transferFrom`. This is zero by default.     * This value changes when `approve` or `transferFrom` are called."
      },
      "approve(address,uint256)": {
        "notice": "Sets `amount` as the allowance of `spender` over the caller's tokens.     * Returns a boolean value indicating whether the operation succeeded.     * > Beware that changing an allowance with this method brings the risk that someone may use both the old and the new allowance by unfortunate transaction ordering. One possible solution to mitigate this race condition is to first reduce the spender's allowance to 0 and set the desired value afterwards: https://github.com/ethereum/EIPs/issues/20#issuecomment-263524729     * Emits an `Approval` event."
      },
      "balanceOf(address)": {
        "notice": "Returns the amount of tokens owned by `account`."
      },
      "initialize(address,string,string,uint256)": {
        "notice": "Create rToken linked with cToken at `cToken_`"
      },
      "transfer(address,uint256)": {
        "notice": "Moves `amount` tokens from the caller's account to `dst`.     * Returns a boolean value indicating whether the operation succeeded.     * Emits a `Transfer` event. May also emit `InterestPaid` event."
      },
      "transferFrom(address,address,uint256)": {
        "notice": "Moves `amount` tokens from `sender` to `recipient` using the allowance mechanism. `amount` is then deducted from the caller's allowance.     * Returns a boolean value indicating whether the operation succeeded.     * Emits a `Transfer` event."
      }
    }
  }
}